:060000000A128A11A02C77
:1009400083010A128A11262F831603131114A82C6F
:1009500083128C1DAC2CAD2CA82C8C110800831696
:1009600003139114B32C83128C1DB72CB82CB32C09
:100970008C110800831603131115BE2C83128C1DD5
:10098000C22CC32CBE2C8C110800F00070088312FE
:1009900003139300CB2C8C1DCE2CCF2CCB2C8C1185
:1009A000080002300A128A1137250A128A112830EB
:1009B0000A128A1137250A128A110C300A128A117A
:1009C00037250A128A1108008316031387150716A4
:1009D00083120313870128309400831603139101B7
:1009E0008030940024309300831203138C1108008C
:1009F000831203138C11831603139115FF2C83129A
:100A00008C1D032D042DFF2C8316031391128312CA
:100A100003138C1113080C2D0800F401F501102D9F
:100A2000701C132D142D1A2D7208F4070318F50AE3
:100A30007308F50701300310F20DF30DFF3E031D9F
:100A40001B2D01300310F10CF00CFF3E031D222D75
:100A500071087004031D2D2D2E2D102D2F2D7508BE
:100A6000F101F1077408F001F007362D0800F200DB
:100A70007208F03983120313880008118815213099
:100A8000F1007630F000F00B432DF10B432D6400A4
:100A90008312031388117208F00003300310F00D65
:100AA000FF3E031D4E2D0310700DF0398800081114
:100AB00088152130F1007630F000F00B5D2DF10B40
:100AC0005D2D64008312031388110800F200720880
:100AD000F039831203138800081588152130F100BE
:100AE0007630F000F00B722DF10B722D6400831242
:100AF000031388117208F00003300310F00DFF3E5D
:100B0000031D7D2D0310700DF03988000815881520
:100B10002130F1007630F000F00B8C2DF10B8C2D94
:100B200064008312031388110800F601F31F992D46
:100B30009A2DA32DF209F309F20A0319F30AF6011B
:100B40000314F60DA32DF11FA62DA72DAD2DF00931
:100B5000F109F00A0319F10AAD2D710870040319A7
:100B6000B22DB32DE92DF5010314F50DC32D013080
:100B70000310F00DF10DFF3E031DB82D0130F40000
:100B80007408F507C32DF11FC62DC72DB72DC92D2C
:100B9000C92D71087302031DCF2D70087202031C4A
:100BA000D22DD32DDA2D7008F2027108031CF30345
:100BB000F302DA2D01300310F10CF00CFF3E031D9F
:100BC000DB2D0130F502031DE62DE72DC92DE92DA2
:100BD000E92D7608031DED2DF32DF209F309F20A34
:100BE0000319F30AF32D7308F101F1077208F001FC
:100BF000F007FA2D0800F601F11FFF2D002E092E37
:100C0000F009F109F00A0319F10AF6010314F60DCF
:100C1000092EF31F0C2E0D2E172EF209F309F20ADE
:100C20000319F30A0130F4007408F606172EF701D1
:100C3000F8017108700403191E2E1F2E5D2EF50198
:100C40000314F50D2F2E01300310F00DF10DFF3EB2
:100C5000031D242E0130F4007408F5072F2EF11F18
:100C6000322E332E232E352E352E01300310F70D64
:100C7000F80DFF3E031D362E71087302031D422E30
:100C800070087202031C452E462E4E2E7008F2028A
:100C90007108031CF303F30277144E2E0130031086
:100CA000F10CF00CFF3E031D4F2E0130F502031D29
:100CB0005A2E5B2E352E5D2E5D2E7608031D612E7D
:100CC000672EF709F809F70A0319F80A672E78085A
:100CD000F101F1077708F001F0076E2E08007A089D
:100CE00083120313A701A7077908A601A6070F30EF
:100CF0002605A00000302705A1002708A30026082C
:100D0000A2000430FF00230DA30CA20CFF0B832EC6
:100D10000F302205F00000302305F1000A30F20008
:100D20000030F3000A128A110D250A128A1183126B
:100D3000031320087007F90021080318210A71071E
:100D4000FA000A30F0000030F1007A08F301F307EE
:100D50007908F201F2070A128A11FB250A128A1198
:100D6000710883120313A901A9077008A801A80735
:100D70000A30F0000030F1007A08F301F307790837
:100D8000F201F2070A128A1195250A128A117108D6
:100D900083120313A501A5077008A401A40729085D
:100DA00028040319D42ED52E152F01302806290426
:100DB0000319DB2EDC2E152F023028062904031917
:100DC000E22EE32E152F0330280629040319E92EFD
:100DD000EA2E152F0430280629040319F02EF12ECF
:100DE000152F0530280629040319F72EF82E152F84
:100DF0000630280629040319FE2EFF2E152F073072
:100E0000280629040319052F062F152F0830280658
:100E1000290403190C2F0D2F152F0930280629043A
:100E2000031D132F142F1C2F152F2808303E0A12D4
:100E30008A1166250A128A11831203132408303E90
:100E40000A128A1166250A128A11080083160313F2
:100E500088018312031388010A128A11D1240A120D
:100E60008A110A128A11E4240A128A110A128A11BA
:100E7000A4240A128A11D0300A128A11C5240A1237
:100E80008A1100300A128A11C5240A128A111130FF
:100E90000A128A11C5240A128A110A128A11BA2466
:100EA0000A128A110A128A11A4240A128A11D03055
:100EB0000A128A11C5240A128A1101300A128A11F3
:100EC000C5240A128A1116300A128A11C5240A1280
:100ED0008A110A128A11BA240A128A110A128A1174
:100EE000A4240A128A11D0300A128A11C5240A12C7
:100EF0008A1102300A128A11C5240A128A11163088
:100F00000A128A11C5240A128A110A128A11BA24F5
:100F10000A128A118B2F80300A128A1137250A1281
:100F20008A110A128A11A4240A128A11D0300A12D4
:100F30008A11C5240A128A1101300A128A11C524A5
:100F40000A128A110A128A11AF240A128A11D130A8
:100F50000A128A11C5240A128A110A128A11F82467
:100F60000A128A11FB007B08FD007D08FB00FC01D2
:100F70007B08F9007C08FA000A128A116F260A120F
:100F80008A110A128A11BA240A128A110A128A11C3
:100F9000A4240A128A11D0300A128A11C5240A1216
:100FA0008A1100300A128A11C5240A128A110A1203
:100FB0008A11AF240A128A11D1300A128A11C5246B
:100FC0000A128A110A128A11F8240A128A11FB00E5
:100FD0007B08FD007D08FB00FC017B08F9007C0814
:100FE000FA000A128A116F260A128A110A128A114D
:100FF000BA240A128A118B2F8B2F0A128A11002809
:02400E003A3F37
:00000001FF
